{
  "contractName": "CappedCrowdsale",
  "abi": [
    {
      "constant": true,
      "inputs": [],
      "name": "tokensSent",
      "outputs": [
        {
          "name": "",
          "type": "uint256"
        }
      ],
      "payable": false,
      "stateMutability": "view",
      "type": "function"
    },
    {
      "constant": true,
      "inputs": [],
      "name": "rate",
      "outputs": [
        {
          "name": "",
          "type": "uint256"
        }
      ],
      "payable": false,
      "stateMutability": "view",
      "type": "function"
    },
    {
      "constant": true,
      "inputs": [],
      "name": "endTime",
      "outputs": [
        {
          "name": "",
          "type": "uint256"
        }
      ],
      "payable": false,
      "stateMutability": "view",
      "type": "function"
    },
    {
      "constant": true,
      "inputs": [],
      "name": "beneficiary",
      "outputs": [
        {
          "name": "",
          "type": "address"
        }
      ],
      "payable": false,
      "stateMutability": "view",
      "type": "function"
    },
    {
      "constant": true,
      "inputs": [],
      "name": "weiRaised",
      "outputs": [
        {
          "name": "",
          "type": "uint256"
        }
      ],
      "payable": false,
      "stateMutability": "view",
      "type": "function"
    },
    {
      "constant": true,
      "inputs": [],
      "name": "wallet",
      "outputs": [
        {
          "name": "",
          "type": "address"
        }
      ],
      "payable": false,
      "stateMutability": "view",
      "type": "function"
    },
    {
      "constant": true,
      "inputs": [
        {
          "name": "",
          "type": "address"
        }
      ],
      "name": "balanceOf",
      "outputs": [
        {
          "name": "",
          "type": "uint256"
        }
      ],
      "payable": false,
      "stateMutability": "view",
      "type": "function"
    },
    {
      "constant": true,
      "inputs": [],
      "name": "startTime",
      "outputs": [
        {
          "name": "",
          "type": "uint256"
        }
      ],
      "payable": false,
      "stateMutability": "view",
      "type": "function"
    },
    {
      "constant": true,
      "inputs": [
        {
          "name": "",
          "type": "uint128"
        }
      ],
      "name": "balancePerID",
      "outputs": [
        {
          "name": "",
          "type": "uint256"
        }
      ],
      "payable": false,
      "stateMutability": "view",
      "type": "function"
    },
    {
      "constant": true,
      "inputs": [],
      "name": "owner",
      "outputs": [
        {
          "name": "",
          "type": "address"
        }
      ],
      "payable": false,
      "stateMutability": "view",
      "type": "function"
    },
    {
      "constant": true,
      "inputs": [],
      "name": "softCap",
      "outputs": [
        {
          "name": "",
          "type": "uint256"
        }
      ],
      "payable": false,
      "stateMutability": "view",
      "type": "function"
    },
    {
      "constant": true,
      "inputs": [],
      "name": "canWithdraw",
      "outputs": [
        {
          "name": "",
          "type": "bool"
        }
      ],
      "payable": false,
      "stateMutability": "view",
      "type": "function"
    },
    {
      "constant": true,
      "inputs": [],
      "name": "halted",
      "outputs": [
        {
          "name": "",
          "type": "bool"
        }
      ],
      "payable": false,
      "stateMutability": "view",
      "type": "function"
    },
    {
      "constant": true,
      "inputs": [],
      "name": "withdrawn",
      "outputs": [
        {
          "name": "",
          "type": "uint256"
        }
      ],
      "payable": false,
      "stateMutability": "view",
      "type": "function"
    },
    {
      "constant": false,
      "inputs": [],
      "name": "stopICO",
      "outputs": [],
      "payable": false,
      "stateMutability": "nonpayable",
      "type": "function"
    },
    {
      "constant": false,
      "inputs": [],
      "name": "buyTokens",
      "outputs": [],
      "payable": true,
      "stateMutability": "payable",
      "type": "function"
    },
    {
      "constant": true,
      "inputs": [
        {
          "name": "",
          "type": "address"
        }
      ],
      "name": "presaleBalanceOf",
      "outputs": [
        {
          "name": "",
          "type": "uint256"
        }
      ],
      "payable": false,
      "stateMutability": "view",
      "type": "function"
    },
    {
      "constant": true,
      "inputs": [
        {
          "name": "",
          "type": "address"
        }
      ],
      "name": "tokenBalanceOf",
      "outputs": [
        {
          "name": "",
          "type": "uint256"
        }
      ],
      "payable": false,
      "stateMutability": "view",
      "type": "function"
    },
    {
      "constant": false,
      "inputs": [
        {
          "name": "newOwner",
          "type": "address"
        }
      ],
      "name": "transferOwnership",
      "outputs": [],
      "payable": false,
      "stateMutability": "nonpayable",
      "type": "function"
    },
    {
      "constant": true,
      "inputs": [],
      "name": "presaleWeiRaised",
      "outputs": [
        {
          "name": "",
          "type": "uint256"
        }
      ],
      "payable": false,
      "stateMutability": "view",
      "type": "function"
    },
    {
      "constant": true,
      "inputs": [],
      "name": "hardCap",
      "outputs": [
        {
          "name": "",
          "type": "uint256"
        }
      ],
      "payable": false,
      "stateMutability": "view",
      "type": "function"
    },
    {
      "constant": true,
      "inputs": [],
      "name": "token",
      "outputs": [
        {
          "name": "",
          "type": "address"
        }
      ],
      "payable": false,
      "stateMutability": "view",
      "type": "function"
    },
    {
      "inputs": [
        {
          "name": "_startTime",
          "type": "uint256"
        },
        {
          "name": "_endTime",
          "type": "uint256"
        },
        {
          "name": "_rate",
          "type": "uint256"
        },
        {
          "name": "_wallet",
          "type": "address"
        },
        {
          "name": "_beneficiary",
          "type": "address"
        },
        {
          "name": "_softCap",
          "type": "uint256"
        },
        {
          "name": "_hardCap",
          "type": "uint256"
        },
        {
          "name": "_token",
          "type": "address"
        }
      ],
      "payable": false,
      "stateMutability": "nonpayable",
      "type": "constructor"
    },
    {
      "anonymous": false,
      "inputs": [
        {
          "indexed": true,
          "name": "purchaser",
          "type": "address"
        },
        {
          "indexed": true,
          "name": "beneficiary",
          "type": "address"
        },
        {
          "indexed": false,
          "name": "value",
          "type": "uint256"
        },
        {
          "indexed": false,
          "name": "amount",
          "type": "uint256"
        },
        {
          "indexed": false,
          "name": "datetime",
          "type": "uint256"
        }
      ],
      "name": "TokenPurchase",
      "type": "event"
    },
    {
      "anonymous": false,
      "inputs": [
        {
          "indexed": false,
          "name": "beneficiary",
          "type": "address"
        },
        {
          "indexed": false,
          "name": "amount",
          "type": "uint256"
        },
        {
          "indexed": false,
          "name": "datetime",
          "type": "uint256"
        }
      ],
      "name": "BeneficiaryWithdrawal",
      "type": "event"
    },
    {
      "anonymous": false,
      "inputs": [
        {
          "indexed": false,
          "name": "owner",
          "type": "address"
        },
        {
          "indexed": false,
          "name": "datetime",
          "type": "uint256"
        }
      ],
      "name": "SaleStopped",
      "type": "event"
    },
    {
      "anonymous": false,
      "inputs": [
        {
          "indexed": true,
          "name": "previousOwner",
          "type": "address"
        },
        {
          "indexed": true,
          "name": "newOwner",
          "type": "address"
        }
      ],
      "name": "OwnershipTransferred",
      "type": "event"
    },
    {
      "constant": true,
      "inputs": [],
      "name": "hasEnded",
      "outputs": [
        {
          "name": "",
          "type": "bool"
        }
      ],
      "payable": false,
      "stateMutability": "view",
      "type": "function"
    },
    {
      "constant": false,
      "inputs": [],
      "name": "successfulWithdraw",
      "outputs": [],
      "payable": false,
      "stateMutability": "nonpayable",
      "type": "function"
    }
  ],
  "bytecode": "0x6060604052341561000f57600080fd5b60405161010080610b91833981016040528080519190602001805191906020018051919060200180519190602001805191906020018051919060200180519190602001805160008054600160a060020a03191633600160a060020a0316179055915088905087878787854286101561008657600080fd5b8585101561009357600080fd5b600084116100a057600080fd5b600160a060020a03831615156100b557600080fd5b60018054600160a060020a03808416600160a060020a0319928316179092556002889055600387905560068690556004805486841690831617905560058054928516929091169190911790556101178364010000000061066b61016682021704565b50505050505060008211801561012d5750600083115b801561013857508183105b151561014357600080fd5b50600e91909155600f555050600060105550506011805460ff19169055506101f4565b60005433600160a060020a0390811691161461018157600080fd5b600160a060020a038116151561019657600080fd5b600054600160a060020a0380831691167f8be0079c531659141344cd1fd0a4f28419497f9722a3daafe3b4186f6b6457e060405160405180910390a360008054600160a060020a031916600160a060020a0392909216919091179055565b61098e806102036000396000f30060606040526004361061013d5763ffffffff7c01000000000000000000000000000000000000000000000000000000006000350416631f13076181146101425780632c4e722e146101675780633197cbb61461017a57806338af3eed1461018d5780634042b66f146101bc578063521eb273146101cf57806370a08231146101e257806378e97925146102015780637db71fc4146102145780638da5cb5b1461023c578063906a26e01461024f578063b51459fe14610262578063b9b8af0b14610289578063bdd304061461029c578063c80ec522146102b1578063c8e569a8146102c4578063d0febe4c146102d7578063dfc6fbaa146102df578063e42c08f2146102fe578063ecb70fb71461031d578063f2fde38b14610330578063f7c00e2f1461034f578063fb86a40414610362578063fc0c546a14610375575b600080fd5b341561014d57600080fd5b610155610388565b60405190815260200160405180910390f35b341561017257600080fd5b61015561038e565b341561018557600080fd5b610155610394565b341561019857600080fd5b6101a061039a565b604051600160a060020a03909116815260200160405180910390f35b34156101c757600080fd5b6101556103a9565b34156101da57600080fd5b6101a06103af565b34156101ed57600080fd5b610155600160a060020a03600435166103be565b341561020c57600080fd5b6101556103d0565b341561021f57600080fd5b6101556fffffffffffffffffffffffffffffffff600435166103d6565b341561024757600080fd5b6101a06103e8565b341561025a57600080fd5b6101556103f7565b341561026d57600080fd5b6102756103fd565b604051901515815260200160405180910390f35b341561029457600080fd5b610275610406565b34156102a757600080fd5b6102af610427565b005b34156102bc57600080fd5b610155610523565b34156102cf57600080fd5b6102af610529565b6102af6105bf565b34156102ea57600080fd5b610155600160a060020a0360043516610625565b341561030957600080fd5b610155600160a060020a0360043516610637565b341561032857600080fd5b610275610649565b341561033b57600080fd5b6102af600160a060020a036004351661066b565b341561035a57600080fd5b610155610706565b341561036d57600080fd5b61015561070c565b341561038057600080fd5b6101a0610712565b60095481565b60065481565b60035481565b600554600160a060020a031681565b60075481565b600454600160a060020a031681565b600b6020526000908152604090205481565b60025481565b600a6020526000908152604090205481565b600054600160a060020a031681565b600e5481565b60115460ff1681565b60005474010000000000000000000000000000000000000000900460ff1681565b60005433600160a060020a0390811691161461044257600080fd5b60005474010000000000000000000000000000000000000000900460ff161561046a57600080fd5b610472610649565b151561047d57600080fd5b600e546009541161048d57600080fd5b600554600754600160a060020a039091169080156108fc0290604051600060405180830381858888f1935050505015156104c657600080fd5b7f9f7cbddba892cf26a7cd63d61d3c8d085df04bbbe7601e53311038ca6dab196b33600754426040518084600160a060020a0316600160a060020a03168152602001838152602001828152602001935050505060405180910390a1565b60105481565b60005433600160a060020a0390811691161461054457600080fd5b6000805474ff00000000000000000000000000000000000000001916740100000000000000000000000000000000000000001790557f4898556e3bd8b06263e50e938f30f736c1fd2030390474dd6bc0b28d8c5450373342604051600160a060020a03909216825260208201526040908101905180910390a1565b60008054819074010000000000000000000000000000000000000000900460ff16156105ea57600080fd5b3491506105f682610721565b90506106018161073e565b151561060c57600080fd5b6106168282610776565b61062133838361081d565b5050565b600c6020526000908152604090205481565b600d6020526000908152604090205481565b600f5460095460009190101561065d610903565b806106655750805b91505090565b60005433600160a060020a0390811691161461068657600080fd5b600160a060020a038116151561069b57600080fd5b600054600160a060020a0380831691167f8be0079c531659141344cd1fd0a4f28419497f9722a3daafe3b4186f6b6457e060405160405180910390a36000805473ffffffffffffffffffffffffffffffffffffffff1916600160a060020a0392909216919091179055565b60085481565b600f5481565b600154600160a060020a031681565b60006107386006548361090b90919063ffffffff16565b92915050565b600080600f546107598460095461092290919063ffffffff16565b1115905061076683610931565b801561076f5750805b9392505050565b600160a060020a0333166000908152600b602052604090205461079f908363ffffffff61092216565b600160a060020a0333166000908152600b6020908152604080832093909355600d905220546107d4908263ffffffff61092216565b600160a060020a0333166000908152600d6020526040902055600754610800908363ffffffff61092216565b600755600954610816908263ffffffff61092216565b6009555050565b600154600160a060020a03166340c10f1984836040517c010000000000000000000000000000000000000000000000000000000063ffffffff8516028152600160a060020a0390921660048301526024820152604401602060405180830381600087803b151561088c57600080fd5b5af1151561089957600080fd5b505050604051805190505082600160a060020a031633600160a060020a03167efe0e12b43090c1fc19a34aefa5cc138a4eeafc60ab800f855c730b3fb9480e84844260405180848152602001838152602001828152602001935050505060405180910390a3505050565b600354421190565b600080828481151561091957fe5b04949350505050565b60008282018381101561076f57fe5b6000806000600254421015801561094a57506003544211155b91505034151581801561095a5750805b9493505050505600a165627a7a72305820a4bf6492a45aaf065317d150d319818a00096c81e655838dc751241511e365270029",
  "source": "pragma solidity 0.4.21;\n\nimport './SafeMath.sol';\nimport './Crowdsale.sol';\n\n/**\n * @title CappedCrowdsale\n * @dev Extension of Crowdsale with a max amount of funds raised\n */\ncontract CappedCrowdsale is Crowdsale {\n  using SafeMath for uint256;\n\n  uint256 public softCap;\n  uint256 public hardCap;\n  uint256 public withdrawn;\n  bool public canWithdraw;\n\n  // Changed implentation to include soft/hard caps\n  function CappedCrowdsale(uint256 _startTime, uint256 _endTime, uint256 _rate, address _wallet, address _beneficiary, uint256 _softCap, uint256 _hardCap, PickToken _token) \n    Crowdsale(_startTime, _endTime, _rate, _wallet, _beneficiary, _token)\n      public {\n\n    require(_hardCap > 0 && _softCap > 0 && _softCap < _hardCap);\n\n    softCap = _softCap;\n    hardCap = _hardCap;\n    withdrawn = 0;\n    canWithdraw = false;\n  }\n\n  // overriding Crowdsale#validPurchase to add extra cap logic\n  // @return true if investors can buy at the moment\n  function validPurchase(uint256 _tokens) internal view returns (bool) {\n    bool withinCap = tokensSent.add(_tokens) <= hardCap;\n    return super.validPurchase(_tokens) && withinCap;\n  }\n  \n  // overriding Crowdsale#hasEnded to add cap logic\n  // @return true if crowdsale event has ended\n  function hasEnded() public view returns (bool) {\n    bool capReached = tokensSent >= hardCap;\n    return super.hasEnded() || capReached;\n  }\n  \n  // overriding Crowdsale#successfulWithdraw to add cap logic\n  // only allow beneficiary to withdraw if softcap has been reached\n  // Uses withdrawn incase a parent contract requires withdrawing softcap early\n  function successfulWithdraw() external onlyOwner stopInEmergency {\n    require(hasEnded());\n    require(tokensSent > softCap);\n\n    beneficiary.transfer(weiRaised);\n    BeneficiaryWithdrawal(msg.sender, weiRaised, now);\n  }\n}",
  "sourcePath": "/Users/jackpickering/Desktop/Development/Iconemy/create_basic_sale/contracts/CappedCrowdsale.sol",
  "compiler": {
    "name": "solc",
    "version": "0.4.21+commit.dfe3193c.Emscripten.clang"
  },
  "schemaVersion": "2.0.0",
  "updatedAt": "2018-05-04T14:10:11.705Z"
}