{
  "contractName": "Crowdsale",
  "abi": [
    {
      "constant": true,
      "inputs": [],
      "name": "tokensSent",
      "outputs": [
        {
          "name": "",
          "type": "uint256"
        }
      ],
      "payable": false,
      "stateMutability": "view",
      "type": "function"
    },
    {
      "constant": true,
      "inputs": [],
      "name": "rate",
      "outputs": [
        {
          "name": "",
          "type": "uint256"
        }
      ],
      "payable": false,
      "stateMutability": "view",
      "type": "function"
    },
    {
      "constant": true,
      "inputs": [],
      "name": "endTime",
      "outputs": [
        {
          "name": "",
          "type": "uint256"
        }
      ],
      "payable": false,
      "stateMutability": "view",
      "type": "function"
    },
    {
      "constant": true,
      "inputs": [],
      "name": "beneficiary",
      "outputs": [
        {
          "name": "",
          "type": "address"
        }
      ],
      "payable": false,
      "stateMutability": "view",
      "type": "function"
    },
    {
      "constant": true,
      "inputs": [],
      "name": "weiRaised",
      "outputs": [
        {
          "name": "",
          "type": "uint256"
        }
      ],
      "payable": false,
      "stateMutability": "view",
      "type": "function"
    },
    {
      "constant": true,
      "inputs": [],
      "name": "wallet",
      "outputs": [
        {
          "name": "",
          "type": "address"
        }
      ],
      "payable": false,
      "stateMutability": "view",
      "type": "function"
    },
    {
      "constant": true,
      "inputs": [
        {
          "name": "",
          "type": "address"
        }
      ],
      "name": "balanceOf",
      "outputs": [
        {
          "name": "",
          "type": "uint256"
        }
      ],
      "payable": false,
      "stateMutability": "view",
      "type": "function"
    },
    {
      "constant": true,
      "inputs": [],
      "name": "startTime",
      "outputs": [
        {
          "name": "",
          "type": "uint256"
        }
      ],
      "payable": false,
      "stateMutability": "view",
      "type": "function"
    },
    {
      "constant": true,
      "inputs": [
        {
          "name": "",
          "type": "uint128"
        }
      ],
      "name": "balancePerID",
      "outputs": [
        {
          "name": "",
          "type": "uint256"
        }
      ],
      "payable": false,
      "stateMutability": "view",
      "type": "function"
    },
    {
      "constant": true,
      "inputs": [],
      "name": "owner",
      "outputs": [
        {
          "name": "",
          "type": "address"
        }
      ],
      "payable": false,
      "stateMutability": "view",
      "type": "function"
    },
    {
      "constant": true,
      "inputs": [],
      "name": "halted",
      "outputs": [
        {
          "name": "",
          "type": "bool"
        }
      ],
      "payable": false,
      "stateMutability": "view",
      "type": "function"
    },
    {
      "constant": false,
      "inputs": [],
      "name": "stopICO",
      "outputs": [],
      "payable": false,
      "stateMutability": "nonpayable",
      "type": "function"
    },
    {
      "constant": true,
      "inputs": [
        {
          "name": "",
          "type": "address"
        }
      ],
      "name": "presaleBalanceOf",
      "outputs": [
        {
          "name": "",
          "type": "uint256"
        }
      ],
      "payable": false,
      "stateMutability": "view",
      "type": "function"
    },
    {
      "constant": true,
      "inputs": [
        {
          "name": "",
          "type": "address"
        }
      ],
      "name": "tokenBalanceOf",
      "outputs": [
        {
          "name": "",
          "type": "uint256"
        }
      ],
      "payable": false,
      "stateMutability": "view",
      "type": "function"
    },
    {
      "constant": false,
      "inputs": [
        {
          "name": "newOwner",
          "type": "address"
        }
      ],
      "name": "transferOwnership",
      "outputs": [],
      "payable": false,
      "stateMutability": "nonpayable",
      "type": "function"
    },
    {
      "constant": true,
      "inputs": [],
      "name": "presaleWeiRaised",
      "outputs": [
        {
          "name": "",
          "type": "uint256"
        }
      ],
      "payable": false,
      "stateMutability": "view",
      "type": "function"
    },
    {
      "constant": true,
      "inputs": [],
      "name": "token",
      "outputs": [
        {
          "name": "",
          "type": "address"
        }
      ],
      "payable": false,
      "stateMutability": "view",
      "type": "function"
    },
    {
      "inputs": [
        {
          "name": "_startTime",
          "type": "uint256"
        },
        {
          "name": "_endTime",
          "type": "uint256"
        },
        {
          "name": "_rate",
          "type": "uint256"
        },
        {
          "name": "_wallet",
          "type": "address"
        },
        {
          "name": "_beneficiary",
          "type": "address"
        },
        {
          "name": "_token",
          "type": "address"
        }
      ],
      "payable": false,
      "stateMutability": "nonpayable",
      "type": "constructor"
    },
    {
      "anonymous": false,
      "inputs": [
        {
          "indexed": true,
          "name": "purchaser",
          "type": "address"
        },
        {
          "indexed": true,
          "name": "beneficiary",
          "type": "address"
        },
        {
          "indexed": false,
          "name": "value",
          "type": "uint256"
        },
        {
          "indexed": false,
          "name": "amount",
          "type": "uint256"
        },
        {
          "indexed": false,
          "name": "datetime",
          "type": "uint256"
        }
      ],
      "name": "TokenPurchase",
      "type": "event"
    },
    {
      "anonymous": false,
      "inputs": [
        {
          "indexed": false,
          "name": "beneficiary",
          "type": "address"
        },
        {
          "indexed": false,
          "name": "amount",
          "type": "uint256"
        },
        {
          "indexed": false,
          "name": "datetime",
          "type": "uint256"
        }
      ],
      "name": "BeneficiaryWithdrawal",
      "type": "event"
    },
    {
      "anonymous": false,
      "inputs": [
        {
          "indexed": false,
          "name": "owner",
          "type": "address"
        },
        {
          "indexed": false,
          "name": "datetime",
          "type": "uint256"
        }
      ],
      "name": "SaleStopped",
      "type": "event"
    },
    {
      "anonymous": false,
      "inputs": [
        {
          "indexed": true,
          "name": "previousOwner",
          "type": "address"
        },
        {
          "indexed": true,
          "name": "newOwner",
          "type": "address"
        }
      ],
      "name": "OwnershipTransferred",
      "type": "event"
    },
    {
      "constant": false,
      "inputs": [],
      "name": "buyTokens",
      "outputs": [],
      "payable": true,
      "stateMutability": "payable",
      "type": "function"
    },
    {
      "constant": false,
      "inputs": [],
      "name": "successfulWithdraw",
      "outputs": [],
      "payable": false,
      "stateMutability": "nonpayable",
      "type": "function"
    },
    {
      "constant": true,
      "inputs": [],
      "name": "hasEnded",
      "outputs": [
        {
          "name": "",
          "type": "bool"
        }
      ],
      "payable": false,
      "stateMutability": "view",
      "type": "function"
    }
  ],
  "bytecode": "0x6060604052341561000f57600080fd5b60405160c080610a4183398101604052808051919060200180519190602001805191906020018051919060200180519190602001805160008054600160a060020a03191633600160a060020a03161790559150504286101561007057600080fd5b8585101561007d57600080fd5b6000841161008a57600080fd5b600160a060020a038316151561009f57600080fd5b60018054600160a060020a03808416600160a060020a031992831617909255600288905560038790556006869055600480548684169083161790556005805492851692909116919091179055610101836401000000006105b461010c82021704565b50505050505061019a565b60005433600160a060020a0390811691161461012757600080fd5b600160a060020a038116151561013c57600080fd5b600054600160a060020a0380831691167f8be0079c531659141344cd1fd0a4f28419497f9722a3daafe3b4186f6b6457e060405160405180910390a360008054600160a060020a031916600160a060020a0392909216919091179055565b610898806101a96000396000f3006060604052600436106101115763ffffffff7c01000000000000000000000000000000000000000000000000000000006000350416631f13076181146101165780632c4e722e1461013b5780633197cbb61461014e57806338af3eed146101615780634042b66f14610190578063521eb273146101a357806370a08231146101b657806378e97925146101d55780637db71fc4146101e85780638da5cb5b14610210578063b9b8af0b14610223578063bdd304061461024a578063c8e569a81461025f578063d0febe4c14610272578063dfc6fbaa1461027a578063e42c08f214610299578063ecb70fb7146102b8578063f2fde38b146102cb578063f7c00e2f146102ea578063fc0c546a146102fd575b600080fd5b341561012157600080fd5b610129610310565b60405190815260200160405180910390f35b341561014657600080fd5b610129610316565b341561015957600080fd5b61012961031c565b341561016c57600080fd5b610174610322565b604051600160a060020a03909116815260200160405180910390f35b341561019b57600080fd5b610129610331565b34156101ae57600080fd5b610174610337565b34156101c157600080fd5b610129600160a060020a0360043516610346565b34156101e057600080fd5b610129610358565b34156101f357600080fd5b6101296fffffffffffffffffffffffffffffffff6004351661035e565b341561021b57600080fd5b610174610370565b341561022e57600080fd5b61023661037f565b604051901515815260200160405180910390f35b341561025557600080fd5b61025d6103a0565b005b341561026a57600080fd5b61025d61048c565b61025d610522565b341561028557600080fd5b610129600160a060020a0360043516610588565b34156102a457600080fd5b610129600160a060020a036004351661059a565b34156102c357600080fd5b6102366105ac565b34156102d657600080fd5b61025d600160a060020a03600435166105b4565b34156102f557600080fd5b61012961064f565b341561030857600080fd5b610174610655565b60095481565b60065481565b60035481565b600554600160a060020a031681565b60075481565b600454600160a060020a031681565b600b6020526000908152604090205481565b60025481565b600a6020526000908152604090205481565b600054600160a060020a031681565b60005474010000000000000000000000000000000000000000900460ff1681565b60005433600160a060020a039081169116146103bb57600080fd5b60005474010000000000000000000000000000000000000000900460ff16156103e357600080fd5b6103eb6105ac565b15156103f657600080fd5b600554600754600160a060020a039091169080156108fc0290604051600060405180830381858888f19350505050151561042f57600080fd5b7f9f7cbddba892cf26a7cd63d61d3c8d085df04bbbe7601e53311038ca6dab196b33600754426040518084600160a060020a0316600160a060020a03168152602001838152602001828152602001935050505060405180910390a1565b60005433600160a060020a039081169116146104a757600080fd5b6000805474ff00000000000000000000000000000000000000001916740100000000000000000000000000000000000000001790557f4898556e3bd8b06263e50e938f30f736c1fd2030390474dd6bc0b28d8c5450373342604051600160a060020a03909216825260208201526040908101905180910390a1565b60008054819074010000000000000000000000000000000000000000900460ff161561054d57600080fd5b34915061055982610664565b905061056481610681565b151561056f57600080fd5b61057982826106b2565b610584338383610759565b5050565b600c6020526000908152604090205481565b600d6020526000908152604090205481565b600354421190565b60005433600160a060020a039081169116146105cf57600080fd5b600160a060020a03811615156105e457600080fd5b600054600160a060020a0380831691167f8be0079c531659141344cd1fd0a4f28419497f9722a3daafe3b4186f6b6457e060405160405180910390a36000805473ffffffffffffffffffffffffffffffffffffffff1916600160a060020a0392909216919091179055565b60085481565b600154600160a060020a031681565b600061067b6006548361083f90919063ffffffff16565b92915050565b6000806000600254421015801561069a57506003544211155b9150503415158180156106aa5750805b949350505050565b600160a060020a0333166000908152600b60205260409020546106db908363ffffffff61085616565b600160a060020a0333166000908152600b6020908152604080832093909355600d90522054610710908263ffffffff61085616565b600160a060020a0333166000908152600d602052604090205560075461073c908363ffffffff61085616565b600755600954610752908263ffffffff61085616565b6009555050565b600154600160a060020a03166340c10f1984836040517c010000000000000000000000000000000000000000000000000000000063ffffffff8516028152600160a060020a0390921660048301526024820152604401602060405180830381600087803b15156107c857600080fd5b5af115156107d557600080fd5b505050604051805190505082600160a060020a031633600160a060020a03167efe0e12b43090c1fc19a34aefa5cc138a4eeafc60ab800f855c730b3fb9480e84844260405180848152602001838152602001828152602001935050505060405180910390a3505050565b600080828481151561084d57fe5b04949350505050565b60008282018381101561086557fe5b93925050505600a165627a7a72305820115f45dfc69196a37f4df10cba8a37c4515425eb191b1510d8501872eb038b7a0029",
  "source": "pragma solidity 0.4.21;\n\nimport './PickToken.sol';\nimport './SafeMath.sol';\nimport './Stoppable.sol';\n\n/**\n * @title Crowdsale\n * @dev Crowdsale is a base contract for managing a token crowdsale.\n * Crowdsales have a start and end timestamps, where investors can make\n * token purchases and the crowdsale will assign them tokens based\n * on a token per ETH rate. Funds collected are forwarded to a wallet\n * as they arrive.\n *\n * This base contract has been changed in certain areas by Pickeringware ltd to facilitate extra functionality\n */\ncontract Crowdsale is Stoppable {\n  using SafeMath for uint256;\n\n  // The token being sold\n  PickToken public token;\n\n  // start and end timestamps where investments are allowed (both inclusive)\n  uint256 public startTime;\n  uint256 public endTime;\n\n  // address where funds are collected\n  address public wallet;\n  address public beneficiary;\n  \n  // how many token units a buyer gets per wei\n  uint256 public rate;\n\n  // amount of raised money in wei\n  uint256 public weiRaised;\n  uint256 public presaleWeiRaised;\n\n  // amount of tokens sent\n  uint256 public tokensSent;\n\n  // These store balances of participants by ID, address and in wei, pre-sale wei and tokens\n  mapping(uint128 => uint256) public balancePerID;\n  mapping(address => uint256) public balanceOf;\n  mapping(address => uint256) public presaleBalanceOf;\n  mapping(address => uint256) public tokenBalanceOf;\n\n  /**\n   * event for token purchase logging\n   * @param purchaser who paid for the tokens\n   * @param beneficiary who got the tokens\n   * @param value weis paid for purchase\n   * @param amount amount of tokens purchased\n   */\n  event TokenPurchase(address indexed purchaser, address indexed beneficiary, uint256 value, uint256 amount, uint256 datetime);\n  event BeneficiaryWithdrawal(address beneficiary, uint256 amount, uint256 datetime);\n\n  /*\n   * Contructor\n   * This initialises the basic crowdsale data\n   * It transfers ownership of this token to the chosen beneficiary \n  */\n  function Crowdsale(uint256 _startTime, uint256 _endTime, uint256 _rate, address _wallet, address _beneficiary, PickToken _token) public {\n    require(_startTime >= now);\n    require(_endTime >= _startTime);\n    require(_rate > 0);\n    require(_wallet != address(0));\n\n    token = _token;\n    startTime = _startTime;\n    endTime = _endTime;\n    rate = _rate;\n    wallet = _wallet;\n    beneficiary = _beneficiary;\n    transferOwnership(_wallet);\n  }\n\n  /*\n   * This method has been changed by Pickeringware ltd\n   * We have split this method down into overidable functions which may affect how users purchase tokens\n   * We also take in a customerID (UUiD v4) which we store in our back-end in order to track users participation\n  */ \n  function buyTokens() public payable stopInEmergency {\n    uint256 weiAmount = msg.value;\n\n    // calculate token amount to be created\n    uint256 tokens = tokensToRecieve(weiAmount);\n\n    // MUST DO REQUIRE AFTER tokens are calculated to check for cap restrictions in stages\n    require(validPurchase(tokens));\n\n    // We move the participants sliders before we mint the tokens to prevent re-entrancy\n    finalizeSale(weiAmount, tokens);\n    produceTokens(msg.sender, weiAmount, tokens);\n  }\n\n  // This function was created to be overridden by a parent contract\n  function produceTokens(address buyer, uint256 weiAmount, uint256 tokens) internal {\n    token.mint(buyer, tokens);\n    TokenPurchase(msg.sender, buyer, weiAmount, tokens, now);\n  }\n\n  // This was created to be overriden by stages implementation\n  // It will adjust the stage sliders accordingly if needed\n  function finalizeSale(uint256 _weiAmount, uint256 _tokens) internal {\n    // Collect ETH and send them a token in return\n    balanceOf[msg.sender] = balanceOf[msg.sender].add(_weiAmount);\n    tokenBalanceOf[msg.sender] = tokenBalanceOf[msg.sender].add(_tokens);\n\n    // update state\n    weiRaised = weiRaised.add(_weiAmount);\n    tokensSent = tokensSent.add(_tokens);\n  }\n  \n  // This was created to be overridden by the stages implementation\n  // Again, this is dependent on the price of tokens which may or may not be collected in stages\n  function tokensToRecieve(uint256 _wei) internal view returns (uint256 tokens) {\n    return _wei.div(rate);\n  }\n\n  // send ether to the fund collection wallet\n  // override to create custom fund forwarding mechanisms\n  function successfulWithdraw() external onlyOwner stopInEmergency {\n    require(hasEnded());\n\n    beneficiary.transfer(weiRaised);\n    BeneficiaryWithdrawal(msg.sender, weiRaised, now);\n  }\n\n  // @return true if the transaction can buy tokens\n  // Receives tokens to send as variable for custom stage implementation\n  // Has an unused variable _tokens which is necessary for capped sale implementation\n  function validPurchase(uint256 _tokens) internal view returns (bool) {\n    bool withinPeriod = now >= startTime && now <= endTime;\n    bool nonZeroPurchase = msg.value != 0;\n    return withinPeriod && nonZeroPurchase;\n  }\n\n  // @return true if crowdsale event has ended\n  function hasEnded() public view returns (bool) {\n    return now > endTime;\n  }\n}\n",
  "sourcePath": "/Users/jackpickering/Desktop/Development/Iconemy/create_basic_sale/contracts/Crowdsale.sol",
  "compiler": {
    "name": "solc",
    "version": "0.4.21+commit.dfe3193c.Emscripten.clang"
  },
  "schemaVersion": "2.0.0",
  "updatedAt": "2018-05-04T14:14:19.812Z"
}