{
  "contractName": "ERC20Token",
  "abi": [
    {
      "constant": true,
      "inputs": [],
      "name": "name",
      "outputs": [
        {
          "name": "",
          "type": "string"
        }
      ],
      "payable": false,
      "stateMutability": "view",
      "type": "function"
    },
    {
      "constant": true,
      "inputs": [],
      "name": "totalSupply",
      "outputs": [
        {
          "name": "",
          "type": "uint256"
        }
      ],
      "payable": false,
      "stateMutability": "view",
      "type": "function"
    },
    {
      "constant": true,
      "inputs": [],
      "name": "multiplier",
      "outputs": [
        {
          "name": "",
          "type": "uint256"
        }
      ],
      "payable": false,
      "stateMutability": "view",
      "type": "function"
    },
    {
      "constant": true,
      "inputs": [],
      "name": "decimals",
      "outputs": [
        {
          "name": "",
          "type": "uint8"
        }
      ],
      "payable": false,
      "stateMutability": "view",
      "type": "function"
    },
    {
      "constant": true,
      "inputs": [],
      "name": "symbol",
      "outputs": [
        {
          "name": "",
          "type": "string"
        }
      ],
      "payable": false,
      "stateMutability": "view",
      "type": "function"
    },
    {
      "inputs": [
        {
          "name": "_initialAmount",
          "type": "uint256"
        },
        {
          "name": "_tokenName",
          "type": "string"
        },
        {
          "name": "_decimalUnits",
          "type": "uint8"
        },
        {
          "name": "_tokenSymbol",
          "type": "string"
        }
      ],
      "payable": false,
      "stateMutability": "nonpayable",
      "type": "constructor"
    },
    {
      "anonymous": false,
      "inputs": [
        {
          "indexed": true,
          "name": "_from",
          "type": "address"
        },
        {
          "indexed": true,
          "name": "_to",
          "type": "address"
        },
        {
          "indexed": false,
          "name": "_value",
          "type": "uint256"
        }
      ],
      "name": "Transfer",
      "type": "event"
    },
    {
      "anonymous": false,
      "inputs": [
        {
          "indexed": true,
          "name": "_owner",
          "type": "address"
        },
        {
          "indexed": true,
          "name": "_spender",
          "type": "address"
        },
        {
          "indexed": false,
          "name": "_value",
          "type": "uint256"
        }
      ],
      "name": "Approval",
      "type": "event"
    },
    {
      "anonymous": false,
      "inputs": [
        {
          "indexed": true,
          "name": "burner",
          "type": "address"
        },
        {
          "indexed": false,
          "name": "value",
          "type": "uint256"
        }
      ],
      "name": "Burn",
      "type": "event"
    },
    {
      "constant": false,
      "inputs": [
        {
          "name": "_value",
          "type": "uint256"
        }
      ],
      "name": "burn",
      "outputs": [],
      "payable": false,
      "stateMutability": "nonpayable",
      "type": "function"
    },
    {
      "constant": true,
      "inputs": [
        {
          "name": "_owner",
          "type": "address"
        }
      ],
      "name": "balanceOf",
      "outputs": [
        {
          "name": "balance",
          "type": "uint256"
        }
      ],
      "payable": false,
      "stateMutability": "view",
      "type": "function"
    },
    {
      "constant": true,
      "inputs": [
        {
          "name": "_owner",
          "type": "address"
        },
        {
          "name": "_spender",
          "type": "address"
        }
      ],
      "name": "allowanceOf",
      "outputs": [
        {
          "name": "remaining",
          "type": "uint256"
        }
      ],
      "payable": false,
      "stateMutability": "view",
      "type": "function"
    },
    {
      "constant": false,
      "inputs": [
        {
          "name": "_to",
          "type": "address"
        },
        {
          "name": "_value",
          "type": "uint256"
        }
      ],
      "name": "transfer",
      "outputs": [
        {
          "name": "success",
          "type": "bool"
        }
      ],
      "payable": false,
      "stateMutability": "nonpayable",
      "type": "function"
    },
    {
      "constant": false,
      "inputs": [
        {
          "name": "_from",
          "type": "address"
        },
        {
          "name": "_to",
          "type": "address"
        },
        {
          "name": "_value",
          "type": "uint256"
        }
      ],
      "name": "transferFrom",
      "outputs": [
        {
          "name": "success",
          "type": "bool"
        }
      ],
      "payable": false,
      "stateMutability": "nonpayable",
      "type": "function"
    },
    {
      "constant": false,
      "inputs": [
        {
          "name": "_spender",
          "type": "address"
        },
        {
          "name": "_value",
          "type": "uint256"
        }
      ],
      "name": "approve",
      "outputs": [
        {
          "name": "success",
          "type": "bool"
        }
      ],
      "payable": false,
      "stateMutability": "nonpayable",
      "type": "function"
    },
    {
      "constant": false,
      "inputs": [
        {
          "name": "_spender",
          "type": "address"
        },
        {
          "name": "_value",
          "type": "uint256"
        }
      ],
      "name": "approveAndCall",
      "outputs": [
        {
          "name": "success",
          "type": "bool"
        }
      ],
      "payable": false,
      "stateMutability": "nonpayable",
      "type": "function"
    }
  ],
  "bytecode": "0x6060604052620186a0600455341561001657600080fd5b6040516109b53803806109b5833981016040528080519190602001805182019190602001805191906020018051600160a060020a0333166000908152600560205260408120879055600387905592019190508380516100799291602001906100a6565b506001805460ff191660ff8416179055600281805161009c9291602001906100a6565b5050505050610141565b828054600181600116156101000203166002900490600052602060002090601f016020900481019282601f106100e757805160ff1916838001178555610114565b82800160010185558215610114579182015b828111156101145782518255916020019190600101906100f9565b50610120929150610124565b5090565b61013e91905b80821115610120576000815560010161012a565b90565b610865806101506000396000f3006060604052600436106100b95763ffffffff7c010000000000000000000000000000000000000000000000000000000060003504166306fdde0381146100be578063095ea7b31461014857806318160ddd1461017e5780631a46ec82146101a35780631b3ed722146101c857806323b872dd146101db578063313ce567146102035780633177029f1461022c57806342966c681461024e57806370a082311461026657806395d89b4114610285578063a9059cbb14610298575b600080fd5b34156100c957600080fd5b6100d16102ba565b60405160208082528190810183818151815260200191508051906020019080838360005b8381101561010d5780820151838201526020016100f5565b50505050905090810190601f16801561013a5780820380516001836020036101000a031916815260200191505b509250505060405180910390f35b341561015357600080fd5b61016a600160a060020a0360043516602435610358565b604051901515815260200160405180910390f35b341561018957600080fd5b6101916103c5565b60405190815260200160405180910390f35b34156101ae57600080fd5b610191600160a060020a03600435811690602435166103cb565b34156101d357600080fd5b6101916103f6565b34156101e657600080fd5b61016a600160a060020a03600435811690602435166044356103fc565b341561020e57600080fd5b6102166104aa565b60405160ff909116815260200160405180910390f35b341561023757600080fd5b61016a600160a060020a03600435166024356104b3565b341561025957600080fd5b610264600435610550565b005b341561027157600080fd5b610191600160a060020a036004351661060a565b341561029057600080fd5b6100d1610625565b34156102a357600080fd5b61016a600160a060020a0360043516602435610690565b60008054600181600116156101000203166002900480601f0160208091040260200160405190810160405280929190818152602001828054600181600116156101000203166002900480156103505780601f1061032557610100808354040283529160200191610350565b820191906000526020600020905b81548152906001019060200180831161033357829003601f168201915b505050505081565b600160a060020a03338116600081815260066020908152604080832094871680845294909152808220859055909291907f8c5be1e5ebec7d5bd14f71427d1e84f3dd0314c0f7b2291e5b200ac8c7c3b9259085905190815260200160405180910390a35060015b92915050565b60035481565b600160a060020a03918216600090815260066020908152604080832093909416825291909152205490565b60045481565b60008061040985336103cb565b90508281101561041857600080fd5b600019811061042657600080fd5b600160a060020a038086166000908152600660209081526040808320339094168352929052205461045d908463ffffffff6106b216565b600160a060020a038087166000908152600660209081526040808320339094168352929052205561048f8585856106c4565b1561049d57600191506104a2565b600091505b509392505050565b60015460ff1681565b6000826104c08184610358565b156105495780600160a060020a0316633e194ecc33306040517c010000000000000000000000000000000000000000000000000000000063ffffffff8516028152600160a060020a03928316600482015291166024820152604401600060405180830381600087803b151561053457600080fd5b5af1151561054157600080fd5b505050600191505b5092915050565b600160a060020a03331660009081526005602052604081205482111561057557600080fd5b5033600160a060020a03811660009081526005602052604090205461059a90836106b2565b600160a060020a0382166000908152600560205260409020556003546105c6908363ffffffff6106b216565b600355600160a060020a0381167fcc16f5dbb4873280815c1ee09dbd06736cffcc184412cf7a71a0fdb75d397ca58360405190815260200160405180910390a25050565b600160a060020a031660009081526005602052604090205490565b60028054600181600116156101000203166002900480601f0160208091040260200160405190810160405280929190818152602001828054600181600116156101000203166002900480156103505780601f1061032557610100808354040283529160200191610350565b600061069d3384846106c4565b156106aa575060016103bf565b5060006103bf565b6000828211156106be57fe5b50900390565b600080600160a060020a03841615156106dc57600080fd5b600160a060020a0385166000908152600560205260409020548390101561070257600080fd5b600160a060020a0384166000908152600560205260409020548381011161072857600080fd5b50600160a060020a0380841660009081526005602052604080822054928716825290205490810190610760908463ffffffff6106b216565b600160a060020a038087166000908152600560205260408082209390935590861681522054610795908463ffffffff61082316565b600160a060020a03808616600081815260056020526040908190209390935591908716907fddf252ad1be2c89b69c2b068fc378daa952ba7f163c4a11628f55a4df523b3ef9086905190815260200160405180910390a3600160a060020a0380851660009081526005602052604080822054928816825290205401811461081857fe5b506001949350505050565b60008282018381101561083257fe5b93925050505600a165627a7a7230582034ac8726988bc282e96beea735eaf2cf518b1316d544150167dfc33a1cf326bb0029",
  "source": "// Abstract contract for the full ERC 20 Token standard\n// https://github.com/ethereum/EIPs/issues/20\npragma solidity 0.4.21;\n\nimport './SafeMath.sol';\n\n/*\nThis Token Contract implements the standard token functionality (https://github.com/ethereum/EIPs/issues/20) as well as the following OPTIONAL extras intended for use by humans.\n\nIn other words. This is intended for deployment in something like a Token Factory or Mist wallet, and then used by humans.\nImagine coins, currencies, shares, voting weight, etc.\nMachine-based, rapid creation of many tokens would not necessarily need these extra features or will be minted in other manners.\n\n1) Initial Finite Supply (upon creation one specifies how much is minted).\n2) In the absence of a token registry: Optional Decimal, Symbol & Name.\n3) Optional approveAndCall() functionality to notify a contract if an approval() has occurred.\n\n.*/\n\ninterface tokenSpender { \n    function receiveApproval(address _from, address _token) external; \n}\n\ncontract ERC20Token {\n    using SafeMath for uint256;\n\n    /* Public variables of the token */\n\n    /*\n    NOTE:\n    The following variables are OPTIONAL vanities. One does not have to include them.\n    They allow one to customise the token contract & in no way influences the core functionality.\n    Some wallets/interfaces might not even bother to look at this information.\n    */\n    uint256 constant MAX_UINT256 = 2**256 - 1;\n    string public name;                   //fancy name: eg Simon Bucks\n    uint8 public decimals;                //How many decimals to show. ie. There could 1000 base units with 3 decimals. Meaning 0.980 SBX = 980 base units. It's like comparing 1 wei to 1 ether.\n    string public symbol;                 //An identifier: eg SBX\n    uint256 public totalSupply;  \n    uint256 public multiplier = 100000;\n    mapping (address => uint256) balances;\n    mapping (address => mapping (address => uint256)) allowed;   \n\n    function ERC20Token(\n        uint256 _initialAmount,\n        string _tokenName,\n        uint8 _decimalUnits,\n        string _tokenSymbol\n        ) public {\n        balances[msg.sender] = _initialAmount;               // Give the creator all initial tokens\n        totalSupply = _initialAmount;                        // Update total supply\n        name = _tokenName;                                   // Set the name for display purposes\n        decimals = _decimalUnits;                            // Amount of decimals for display purposes\n        symbol = _tokenSymbol;                               // Set the symbol for display purposes\n    }\n\n\n    event Transfer(address indexed _from, address indexed _to, uint256 _value);\n    event Approval(address indexed _owner, address indexed _spender, uint256 _value);\n    event Burn(address indexed burner, uint256 value);\n\n    /**\n     * @dev Burns a specific amount of tokens.\n     * @param _value The amount of token to be burned.\n     */\n    function burn(uint256 _value) public {\n        require(_value <= balances[msg.sender]);\n        // no need to require value <= totalSupply, since that would imply the\n        // sender's balance is greater than the totalSupply, which *should* be an assertion failure\n\n        address burner = msg.sender;\n        balances[burner] = balances[burner].sub(_value);\n        totalSupply = totalSupply.sub(_value);\n        Burn(burner, _value);\n    }\n\n\n    // Get the balance of this caller\n    function balanceOf(address _owner) constant public returns (uint256 balance) {\n        return balances[_owner];\n    }\n\n    // Get the allowance of a spender for a certain account\n    function allowanceOf(address _owner, address _spender) public constant returns (uint256 remaining) {\n        return allowed[_owner][_spender];\n    }\n\n    function transfer(address _to, uint256 _value) public returns (bool success) {\n        //Call internal transfer method\n        if(_transfer(msg.sender, _to, _value)){\n            return true;\n        } else {\n            return false;\n        }\n    }\n\n    function transferFrom(address _from, address _to, uint256 _value) public returns (bool success) {\n        //Check the allowance of the address spending tokens on behalf of account\n        uint256 allowance = allowanceOf(_from, msg.sender);\n        //Require that they must have more in their allowance than they wish to send\n        require(allowance >= _value);\n\n        //Require that allowance isnt the max integer\n        require(allowance < MAX_UINT256);\n            \n        //If so, take from their allowance and transfer\n        allowed[_from][msg.sender] = allowed[_from][msg.sender].sub(_value);\n\n        if(_transfer(_from, _to, _value)){\n            return true;\n        } else {\n            return false;\n        } \n        \n    }\n\n    function _transfer(address _from, address _to, uint256 _value) internal returns(bool success){\n        // Prevent transfer to 0x0 address. Use burn() instead\n        require(_to != 0x0);\n        // Check if the sender has enough\n        require(balances[_from] >= _value);\n        // Check for overflows (as max number is 2**256 - 1 - balances will overflow after that)\n        require(balances[_to] + _value > balances[_to]);\n        // Save this for an assertion in the future\n        uint previousBalances = balances[_from] + balances[_to];\n        // Subtract from the sender\n        balances[_from] = balances[_from].sub(_value);\n        // Add the same to the recipient\n        balances[_to] =  balances[_to].add(_value);\n\n        Transfer(_from, _to, _value);\n\n        // Asserts are used to use static analysis to find bugs in your code. They should never fail\n        assert(balances[_from] + balances[_to] == previousBalances);\n\n        return true;\n    }\n\n    // Approve the allowance for a certain spender\n    function approve(address _spender, uint256 _value) public returns (bool success) {\n        allowed[msg.sender][_spender] = _value;\n        Approval(msg.sender, _spender, _value);\n        return true;\n    }\n\n    function approveAndCall(address _spender, uint256 _value) public returns (bool success) {\n        // This function is used by contracts to allowing the token to notify them when an approval has been made. \n        tokenSpender spender = tokenSpender(_spender);\n\n        if(approve(_spender, _value)){\n            spender.receiveApproval(msg.sender, this);\n            return true;\n        }\n    }\n}",
  "sourcePath": "/Users/jackpickering/Desktop/Development/Iconemy/create_basic_sale/contracts/ERC20Token.sol",
  "compiler": {
    "name": "solc",
    "version": "0.4.21+commit.dfe3193c.Emscripten.clang"
  },
  "schemaVersion": "2.0.0",
  "updatedAt": "2018-05-04T14:10:11.707Z"
}