{
  "contractName": "Stoppable",
  "abi": [
    {
      "constant": true,
      "inputs": [],
      "name": "owner",
      "outputs": [
        {
          "name": "",
          "type": "address"
        }
      ],
      "payable": false,
      "stateMutability": "view",
      "type": "function"
    },
    {
      "constant": true,
      "inputs": [],
      "name": "halted",
      "outputs": [
        {
          "name": "",
          "type": "bool"
        }
      ],
      "payable": false,
      "stateMutability": "view",
      "type": "function"
    },
    {
      "constant": false,
      "inputs": [
        {
          "name": "newOwner",
          "type": "address"
        }
      ],
      "name": "transferOwnership",
      "outputs": [],
      "payable": false,
      "stateMutability": "nonpayable",
      "type": "function"
    },
    {
      "anonymous": false,
      "inputs": [
        {
          "indexed": false,
          "name": "owner",
          "type": "address"
        },
        {
          "indexed": false,
          "name": "datetime",
          "type": "uint256"
        }
      ],
      "name": "SaleStopped",
      "type": "event"
    },
    {
      "anonymous": false,
      "inputs": [
        {
          "indexed": true,
          "name": "previousOwner",
          "type": "address"
        },
        {
          "indexed": true,
          "name": "newOwner",
          "type": "address"
        }
      ],
      "name": "OwnershipTransferred",
      "type": "event"
    },
    {
      "constant": false,
      "inputs": [],
      "name": "stopICO",
      "outputs": [],
      "payable": false,
      "stateMutability": "nonpayable",
      "type": "function"
    }
  ],
  "bytecode": "0x606060405260008054600160a060020a033316600160a060020a031990911617905561027d806100306000396000f3006060604052600436106100615763ffffffff7c01000000000000000000000000000000000000000000000000000000006000350416638da5cb5b8114610066578063b9b8af0b14610095578063c8e569a8146100bc578063f2fde38b146100d1575b600080fd5b341561007157600080fd5b6100796100f0565b604051600160a060020a03909116815260200160405180910390f35b34156100a057600080fd5b6100a86100ff565b604051901515815260200160405180910390f35b34156100c757600080fd5b6100cf610120565b005b34156100dc57600080fd5b6100cf600160a060020a03600435166101b6565b600054600160a060020a031681565b60005474010000000000000000000000000000000000000000900460ff1681565b60005433600160a060020a0390811691161461013b57600080fd5b6000805474ff00000000000000000000000000000000000000001916740100000000000000000000000000000000000000001790557f4898556e3bd8b06263e50e938f30f736c1fd2030390474dd6bc0b28d8c5450373342604051600160a060020a03909216825260208201526040908101905180910390a1565b60005433600160a060020a039081169116146101d157600080fd5b600160a060020a03811615156101e657600080fd5b600054600160a060020a0380831691167f8be0079c531659141344cd1fd0a4f28419497f9722a3daafe3b4186f6b6457e060405160405180910390a36000805473ffffffffffffffffffffffffffffffffffffffff1916600160a060020a03929092169190911790555600a165627a7a723058208dab13fbfe19722b42f4b8ad42b80f8c790a58b922fab689d4bc2627f7714a1a0029",
  "source": "pragma solidity 0.4.21;\n\nimport './Ownable.sol';\n\ncontract Stoppable is Ownable {\n  bool public halted;\n\n  event SaleStopped(address owner, uint256 datetime);\n\n  modifier stopInEmergency {\n    require(!halted);\n    _;\n  }\n\n  function hasHalted() internal view returns (bool isHalted) {\n  \treturn halted;\n  }\n\n   // called by the owner on emergency, triggers stopped state\n  function stopICO() external onlyOwner {\n    halted = true;\n    SaleStopped(msg.sender, now);\n  }\n}",
  "sourcePath": "/Users/jackpickering/Desktop/Development/Iconemy/create_basic_sale/contracts/Stoppable.sol",
  "compiler": {
    "name": "solc",
    "version": "0.4.21+commit.dfe3193c.Emscripten.clang"
  },
  "schemaVersion": "2.0.0",
  "updatedAt": "2018-05-04T14:10:11.715Z"
}